{
  "contractName": "LipToken",
  "abi": [
    {
      "inputs": [
        {
          "internalType": "string",
          "name": "_name",
          "type": "string"
        },
        {
          "internalType": "string",
          "name": "_symbol",
          "type": "string"
        }
      ],
      "stateMutability": "nonpayable",
      "type": "constructor"
    },
    {
      "anonymous": false,
      "inputs": [
        {
          "indexed": true,
          "internalType": "address",
          "name": "owner",
          "type": "address"
        },
        {
          "indexed": true,
          "internalType": "address",
          "name": "approved",
          "type": "address"
        },
        {
          "indexed": true,
          "internalType": "uint256",
          "name": "tokenId",
          "type": "uint256"
        }
      ],
      "name": "Approval",
      "type": "event"
    },
    {
      "anonymous": false,
      "inputs": [
        {
          "indexed": true,
          "internalType": "address",
          "name": "owner",
          "type": "address"
        },
        {
          "indexed": true,
          "internalType": "address",
          "name": "operator",
          "type": "address"
        },
        {
          "indexed": false,
          "internalType": "bool",
          "name": "approved",
          "type": "bool"
        }
      ],
      "name": "ApprovalForAll",
      "type": "event"
    },
    {
      "anonymous": false,
      "inputs": [
        {
          "indexed": true,
          "internalType": "address",
          "name": "owner",
          "type": "address"
        },
        {
          "indexed": false,
          "internalType": "uint256",
          "name": "id",
          "type": "uint256"
        },
        {
          "indexed": false,
          "internalType": "uint256",
          "name": "dna",
          "type": "uint256"
        }
      ],
      "name": "NewLip",
      "type": "event"
    },
    {
      "anonymous": false,
      "inputs": [
        {
          "indexed": true,
          "internalType": "address",
          "name": "previousOwner",
          "type": "address"
        },
        {
          "indexed": true,
          "internalType": "address",
          "name": "newOwner",
          "type": "address"
        }
      ],
      "name": "OwnershipTransferred",
      "type": "event"
    },
    {
      "anonymous": false,
      "inputs": [
        {
          "indexed": true,
          "internalType": "address",
          "name": "from",
          "type": "address"
        },
        {
          "indexed": true,
          "internalType": "address",
          "name": "to",
          "type": "address"
        },
        {
          "indexed": true,
          "internalType": "uint256",
          "name": "tokenId",
          "type": "uint256"
        }
      ],
      "name": "Transfer",
      "type": "event"
    },
    {
      "inputs": [
        {
          "internalType": "address",
          "name": "to",
          "type": "address"
        },
        {
          "internalType": "uint256",
          "name": "tokenId",
          "type": "uint256"
        }
      ],
      "name": "approve",
      "outputs": [],
      "stateMutability": "nonpayable",
      "type": "function"
    },
    {
      "inputs": [
        {
          "internalType": "address",
          "name": "owner",
          "type": "address"
        }
      ],
      "name": "balanceOf",
      "outputs": [
        {
          "internalType": "uint256",
          "name": "",
          "type": "uint256"
        }
      ],
      "stateMutability": "view",
      "type": "function",
      "constant": true
    },
    {
      "inputs": [],
      "name": "fee",
      "outputs": [
        {
          "internalType": "uint256",
          "name": "",
          "type": "uint256"
        }
      ],
      "stateMutability": "view",
      "type": "function",
      "constant": true
    },
    {
      "inputs": [
        {
          "internalType": "uint256",
          "name": "tokenId",
          "type": "uint256"
        }
      ],
      "name": "getApproved",
      "outputs": [
        {
          "internalType": "address",
          "name": "",
          "type": "address"
        }
      ],
      "stateMutability": "view",
      "type": "function",
      "constant": true
    },
    {
      "inputs": [
        {
          "internalType": "address",
          "name": "owner",
          "type": "address"
        },
        {
          "internalType": "address",
          "name": "operator",
          "type": "address"
        }
      ],
      "name": "isApprovedForAll",
      "outputs": [
        {
          "internalType": "bool",
          "name": "",
          "type": "bool"
        }
      ],
      "stateMutability": "view",
      "type": "function",
      "constant": true
    },
    {
      "inputs": [
        {
          "internalType": "uint256",
          "name": "",
          "type": "uint256"
        }
      ],
      "name": "lips",
      "outputs": [
        {
          "internalType": "string",
          "name": "name",
          "type": "string"
        },
        {
          "internalType": "uint256",
          "name": "id",
          "type": "uint256"
        },
        {
          "internalType": "uint256",
          "name": "dna",
          "type": "uint256"
        },
        {
          "internalType": "uint8",
          "name": "level",
          "type": "uint8"
        },
        {
          "internalType": "uint8",
          "name": "rarity",
          "type": "uint8"
        },
        {
          "internalType": "address",
          "name": "owner",
          "type": "address"
        }
      ],
      "stateMutability": "view",
      "type": "function",
      "constant": true
    },
    {
      "inputs": [],
      "name": "name",
      "outputs": [
        {
          "internalType": "string",
          "name": "",
          "type": "string"
        }
      ],
      "stateMutability": "view",
      "type": "function",
      "constant": true
    },
    {
      "inputs": [],
      "name": "owner",
      "outputs": [
        {
          "internalType": "address",
          "name": "",
          "type": "address"
        }
      ],
      "stateMutability": "view",
      "type": "function",
      "constant": true
    },
    {
      "inputs": [
        {
          "internalType": "uint256",
          "name": "tokenId",
          "type": "uint256"
        }
      ],
      "name": "ownerOf",
      "outputs": [
        {
          "internalType": "address",
          "name": "",
          "type": "address"
        }
      ],
      "stateMutability": "view",
      "type": "function",
      "constant": true
    },
    {
      "inputs": [],
      "name": "renounceOwnership",
      "outputs": [],
      "stateMutability": "nonpayable",
      "type": "function"
    },
    {
      "inputs": [
        {
          "internalType": "address",
          "name": "from",
          "type": "address"
        },
        {
          "internalType": "address",
          "name": "to",
          "type": "address"
        },
        {
          "internalType": "uint256",
          "name": "tokenId",
          "type": "uint256"
        }
      ],
      "name": "safeTransferFrom",
      "outputs": [],
      "stateMutability": "nonpayable",
      "type": "function"
    },
    {
      "inputs": [
        {
          "internalType": "address",
          "name": "from",
          "type": "address"
        },
        {
          "internalType": "address",
          "name": "to",
          "type": "address"
        },
        {
          "internalType": "uint256",
          "name": "tokenId",
          "type": "uint256"
        },
        {
          "internalType": "bytes",
          "name": "data",
          "type": "bytes"
        }
      ],
      "name": "safeTransferFrom",
      "outputs": [],
      "stateMutability": "nonpayable",
      "type": "function"
    },
    {
      "inputs": [
        {
          "internalType": "address",
          "name": "operator",
          "type": "address"
        },
        {
          "internalType": "bool",
          "name": "approved",
          "type": "bool"
        }
      ],
      "name": "setApprovalForAll",
      "outputs": [],
      "stateMutability": "nonpayable",
      "type": "function"
    },
    {
      "inputs": [
        {
          "internalType": "bytes4",
          "name": "interfaceId",
          "type": "bytes4"
        }
      ],
      "name": "supportsInterface",
      "outputs": [
        {
          "internalType": "bool",
          "name": "",
          "type": "bool"
        }
      ],
      "stateMutability": "view",
      "type": "function",
      "constant": true
    },
    {
      "inputs": [],
      "name": "symbol",
      "outputs": [
        {
          "internalType": "string",
          "name": "",
          "type": "string"
        }
      ],
      "stateMutability": "view",
      "type": "function",
      "constant": true
    },
    {
      "inputs": [
        {
          "internalType": "uint256",
          "name": "tokenId",
          "type": "uint256"
        }
      ],
      "name": "tokenURI",
      "outputs": [
        {
          "internalType": "string",
          "name": "",
          "type": "string"
        }
      ],
      "stateMutability": "view",
      "type": "function",
      "constant": true
    },
    {
      "inputs": [
        {
          "internalType": "address",
          "name": "from",
          "type": "address"
        },
        {
          "internalType": "address",
          "name": "to",
          "type": "address"
        },
        {
          "internalType": "uint256",
          "name": "tokenId",
          "type": "uint256"
        }
      ],
      "name": "transferFrom",
      "outputs": [],
      "stateMutability": "nonpayable",
      "type": "function"
    },
    {
      "inputs": [
        {
          "internalType": "address",
          "name": "newOwner",
          "type": "address"
        }
      ],
      "name": "transferOwnership",
      "outputs": [],
      "stateMutability": "nonpayable",
      "type": "function"
    },
    {
      "inputs": [
        {
          "internalType": "uint256",
          "name": "_fee",
          "type": "uint256"
        }
      ],
      "name": "updateFee",
      "outputs": [],
      "stateMutability": "nonpayable",
      "type": "function"
    },
    {
      "inputs": [],
      "name": "withdraw",
      "outputs": [],
      "stateMutability": "payable",
      "type": "function",
      "payable": true
    },
    {
      "inputs": [
        {
          "internalType": "string",
          "name": "_name",
          "type": "string"
        }
      ],
      "name": "createRandomLip",
      "outputs": [],
      "stateMutability": "payable",
      "type": "function",
      "payable": true
    },
    {
      "inputs": [],
      "name": "getLips",
      "outputs": [
        {
          "components": [
            {
              "internalType": "string",
              "name": "name",
              "type": "string"
            },
            {
              "internalType": "uint256",
              "name": "id",
              "type": "uint256"
            },
            {
              "internalType": "uint256",
              "name": "dna",
              "type": "uint256"
            },
            {
              "internalType": "uint8",
              "name": "level",
              "type": "uint8"
            },
            {
              "internalType": "uint8",
              "name": "rarity",
              "type": "uint8"
            },
            {
              "internalType": "address",
              "name": "owner",
              "type": "address"
            }
          ],
          "internalType": "struct LipToken.Lip[]",
          "name": "",
          "type": "tuple[]"
        }
      ],
      "stateMutability": "view",
      "type": "function",
      "constant": true
    },
    {
      "inputs": [],
      "name": "moneySmartContract",
      "outputs": [
        {
          "internalType": "uint256",
          "name": "",
          "type": "uint256"
        }
      ],
      "stateMutability": "view",
      "type": "function",
      "constant": true
    },
    {
      "inputs": [],
      "name": "addressSmartContract",
      "outputs": [
        {
          "internalType": "address",
          "name": "",
          "type": "address"
        }
      ],
      "stateMutability": "view",
      "type": "function",
      "constant": true
    },
    {
      "inputs": [
        {
          "internalType": "address",
          "name": "_owner",
          "type": "address"
        }
      ],
      "name": "getOwnerLips",
      "outputs": [
        {
          "components": [
            {
              "internalType": "string",
              "name": "name",
              "type": "string"
            },
            {
              "internalType": "uint256",
              "name": "id",
              "type": "uint256"
            },
            {
              "internalType": "uint256",
              "name": "dna",
              "type": "uint256"
            },
            {
              "internalType": "uint8",
              "name": "level",
              "type": "uint8"
            },
            {
              "internalType": "uint8",
              "name": "rarity",
              "type": "uint8"
            },
            {
              "internalType": "address",
              "name": "owner",
              "type": "address"
            }
          ],
          "internalType": "struct LipToken.Lip[]",
          "name": "",
          "type": "tuple[]"
        }
      ],
      "stateMutability": "view",
      "type": "function",
      "constant": true
    },
    {
      "inputs": [
        {
          "internalType": "uint256",
          "name": "_lipId",
          "type": "uint256"
        }
      ],
      "name": "levelUp",
      "outputs": [],
      "stateMutability": "nonpayable",
      "type": "function"
    }
  ],
  "bytecode": "0x608060405264174876e8006008553480156200001a57600080fd5b5060405162002650380380620026508339810160408190526200003d9162000252565b81518290829062000056906000906020850190620000f9565b5080516200006c906001906020840190620000f9565b5050506200009b6200008c620000a3640100000000026401000000009004565b640100000000620000a7810204565b50506200033e565b3390565b60068054600160a060020a03838116600160a060020a0319831681179093556040519116919082907f8be0079c531659141344cd1fd0a4f28419497f9722a3daafe3b4186f6b6457e090600090a35050565b8280546200010790620002b9565b90600052602060002090601f0160209004810192826200012b576000855562000176565b82601f106200014657805160ff191683800117855562000176565b8280016001018555821562000176579182015b828111156200017657825182559160200191906001019062000159565b506200018492915062000188565b5090565b5b8082111562000184576000815560010162000189565b600082601f830112620001b0578081fd5b81516001604060020a0380821115620001cd57620001cd6200030f565b604051601f8301601f19908116603f01168101908282118183101715620001f857620001f86200030f565b8160405283815260209250868385880101111562000214578485fd5b8491505b8382101562000237578582018301518183018401529082019062000218565b838211156200024857848385830101525b9695505050505050565b6000806040838503121562000265578182fd5b82516001604060020a03808211156200027c578384fd5b6200028a868387016200019f565b93506020850151915080821115620002a0578283fd5b50620002af858286016200019f565b9150509250929050565b600281046001821680620002ce57607f821691505b6020821081141562000309577f4e487b7100000000000000000000000000000000000000000000000000000000600052602260045260246000fd5b50919050565b7f4e487b7100000000000000000000000000000000000000000000000000000000600052604160045260246000fd5b612302806200034e6000396000f3fe60806040526004361061019e576000357c01000000000000000000000000000000000000000000000000000000009004806383b5daf7116100ee578063a22cb465116100a7578063c87b56dd11610081578063c87b56dd1461044f578063ddca3f431461046f578063e985e9c514610484578063f2fde38b146104a45761019e565b8063a22cb465146103fa578063b88d4fde1461041a578063c2f5168a1461043a5761019e565b806383b5daf7146103595780638c0b9c541461037b5780638da5cb5b1461039b5780639012c4a8146103b057806395d89b41146103d057806399470ee6146103e55761019e565b80633ccfd60b1161015b5780636352211e116101355780636352211e146102e4578063698d640c1461030457806370a0823114610317578063715018a6146103445761019e565b80633ccfd60b1461028a57806342842e0e146102925780635ec163db146102b25761019e565b806301ffc9a7146101a357806306fdde03146101d9578063081812fc146101fb578063095ea7b3146102285780630ce90ec21461024a57806323b872dd1461026a575b600080fd5b3480156101af57600080fd5b506101c36101be366004611ae3565b6104c4565b6040516101d09190611cfa565b60405180910390f35b3480156101e557600080fd5b506101ee61053e565b6040516101d09190611d05565b34801561020757600080fd5b5061021b610216366004611b61565b6105d0565b6040516101d09190611bfa565b34801561023457600080fd5b50610248610243366004611aba565b6105f7565b005b34801561025657600080fd5b50610248610265366004611b61565b61069e565b34801561027657600080fd5b506102486102853660046119cc565b610726565b610248610761565b34801561029e57600080fd5b506102486102ad3660046119cc565b6107b0565b3480156102be57600080fd5b506102d26102cd366004611b61565b6107cb565b6040516101d096959493929190611d18565b3480156102f057600080fd5b5061021b6102ff366004611b61565b6108b2565b610248610312366004611b1b565b6108ea565b34801561032357600080fd5b50610337610332366004611980565b610905565b6040516101d09190612158565b34801561035057600080fd5b5061024861094c565b34801561036557600080fd5b5061036e610960565b6040516101d09190611c4a565b34801561038757600080fd5b5061036e610396366004611980565b610a99565b3480156103a757600080fd5b5061021b610ca7565b3480156103bc57600080fd5b506102486103cb366004611b61565b610cb6565b3480156103dc57600080fd5b506101ee610cc3565b3480156103f157600080fd5b50610337610cd2565b34801561040657600080fd5b50610248610415366004611a80565b610cd7565b34801561042657600080fd5b50610248610435366004611a07565b610ce9565b34801561044657600080fd5b5061021b610d2b565b34801561045b57600080fd5b506101ee61046a366004611b61565b610d2f565b34801561047b57600080fd5b50610337610d96565b34801561049057600080fd5b506101c361049f36600461199a565b610d9c565b3480156104b057600080fd5b506102486104bf366004611980565b610dca565b6000600160e060020a031982167f80ac58cd0000000000000000000000000000000000000000000000000000000014806105275750600160e060020a031982167f5b5e139f00000000000000000000000000000000000000000000000000000000145b80610536575061053682610e04565b90505b919050565b60606000805461054d906121de565b80601f0160208091040260200160405190810160405280929190818152602001828054610579906121de565b80156105c65780601f1061059b576101008083540402835291602001916105c6565b820191906000526020600020905b8154815290600101906020018083116105a957829003601f168201915b5050505050905090565b60006105db82610e36565b50600090815260046020526040902054600160a060020a031690565b6000610602826108b2565b905080600160a060020a031683600160a060020a031614156106425760405160e560020a62461bcd0281526004016106399061209e565b60405180910390fd5b80600160a060020a0316610654610e5e565b600160a060020a0316148061067057506106708161049f610e5e565b61068f5760405160e560020a62461bcd02815260040161063990611fa0565b6106998383610e62565b505050565b336106a8826108b2565b600160a060020a0316146106bb57600080fd5b6000600982815481106106e15760e060020a634e487b7102600052603260045260246000fd5b6000918252602082206003600490920201908101805491935060ff9091169161070983612237565b91906101000a81548160ff021916908360ff160217905550505050565b610737610731610e5e565b82610edd565b6107565760405160e560020a62461bcd028152600401610639906120fb565b610699838383610f3c565b610769611082565b6000610773610ca7565b604051909150600160a060020a03821690303180156108fc02916000818181858888f193505050501580156107ac573d6000803e3d6000fd5b5050565b61069983838360405180602001604052806000815250610ce9565b600981815481106107db57600080fd5b90600052602060002090600402016000915090508060000180546107fe906121de565b80601f016020809104026020016040519081016040528092919081815260200182805461082a906121de565b80156108775780601f1061084c57610100808354040283529160200191610877565b820191906000526020600020905b81548152906001019060200180831161085a57829003601f168201915b505050600184015460028501546003909501549394909390925060ff808216925061010082041690600160a060020a03620100009091041686565b600081815260026020526040812054600160a060020a0316806105365760405160e560020a62461bcd02815260040161063990612067565b6008543410156108f957600080fd5b610902816110c4565b50565b6000600160a060020a0382166109305760405160e560020a62461bcd02815260040161063990611f43565b50600160a060020a031660009081526003602052604090205490565b610954611082565b61095e6000611251565b565b60606009805480602002602001604051908101604052809291908181526020016000905b82821015610a9057838290600052602060002090600402016040518060c00160405290816000820180546109b7906121de565b80601f01602080910402602001604051908101604052809291908181526020018280546109e3906121de565b8015610a305780601f10610a0557610100808354040283529160200191610a30565b820191906000526020600020905b815481529060010190602001808311610a1357829003601f168201915b50505091835250506001828101546020808401919091526002840154604084015260039093015460ff80821660608501526101008204166080840152620100009004600160a060020a031660a09092019190915291835292019101610984565b50505050905090565b60606000610aa683610905565b67ffffffffffffffff811115610acf5760e060020a634e487b7102600052604160045260246000fd5b604051908082528060200260200182016040528015610b0857816020015b610af5611815565b815260200190600190039081610aed5790505b5090506000805b600954811015610c9e5784600160a060020a0316610b2c826108b2565b600160a060020a03161415610c8c5760098181548110610b5f5760e060020a634e487b7102600052603260045260246000fd5b90600052602060002090600402016040518060c0016040529081600082018054610b88906121de565b80601f0160208091040260200160405190810160405280929190818152602001828054610bb4906121de565b8015610c015780601f10610bd657610100808354040283529160200191610c01565b820191906000526020600020905b815481529060010190602001808311610be457829003601f168201915b5050509183525050600182015460208201526002820154604082015260039091015460ff80821660608401526101008204166080830152620100009004600160a060020a031660a0909101528351849084908110610c725760e060020a634e487b7102600052603260045260246000fd5b60200260200101819052508180610c889061221c565b9250505b80610c968161221c565b915050610b0f565b50909392505050565b600654600160a060020a031690565b610cbe611082565b600855565b60606001805461054d906121de565b303190565b6107ac610ce2610e5e565b83836112b0565b610cfa610cf4610e5e565b83610edd565b610d195760405160e560020a62461bcd028152600401610639906120fb565b610d2584848484611356565b50505050565b3090565b6060610d3a82610e36565b6000610d4461138c565b90506000815111610d645760405180602001604052806000815250610d8f565b80610d6e8461139e565b604051602001610d7f929190611ba5565b6040516020818303038152906040525b9392505050565b60085481565b600160a060020a03918216600090815260056020908152604080832093909416825291909152205460ff1690565b610dd2611082565b600160a060020a038116610dfb5760405160e560020a62461bcd02815260040161063990611dbe565b61090281611251565b600160e060020a031981167f01ffc9a70000000000000000000000000000000000000000000000000000000014919050565b610e3f81611512565b6109025760405160e560020a62461bcd02815260040161063990612067565b3390565b6000818152600460205260409020805473ffffffffffffffffffffffffffffffffffffffff1916600160a060020a0384169081179091558190610ea4826108b2565b600160a060020a03167f8c5be1e5ebec7d5bd14f71427d1e84f3dd0314c0f7b2291e5b200ac8c7c3b92560405160405180910390a45050565b600080610ee9836108b2565b905080600160a060020a031684600160a060020a03161480610f105750610f108185610d9c565b80610f34575083600160a060020a0316610f29846105d0565b600160a060020a0316145b949350505050565b82600160a060020a0316610f4f826108b2565b600160a060020a031614610f785760405160e560020a62461bcd02815260040161063990611e1b565b600160a060020a038216610fa15760405160e560020a62461bcd02815260040161063990611eaf565b610fac838383610699565b610fb7600082610e62565b600160a060020a0383166000908152600360205260408120805460019290610fe090849061219b565b9091555050600160a060020a038216600090815260036020526040812080546001929061100e90849061216f565b9091555050600081815260026020526040808220805473ffffffffffffffffffffffffffffffffffffffff1916600160a060020a0386811691821790925591518493918716917fddf252ad1be2c89b69c2b068fc378daa952ba7f163c4a11628f55a4df523b3ef91a4610699838383610699565b61108a610e5e565b600160a060020a031661109b610ca7565b600160a060020a03161461095e5760405160e560020a62461bcd02815260040161063990612032565b60006110d0606461152f565b905060006110e4662386f26fc1000061152f565b6040805160c08101825285815260075460208083019190915291810183905260016060820181905260ff861660808301523360a0830152600980549182018155600052815180519495509193849360049092027f6e1540171b6c0c960b71a7020d9f60077f6af931a8bbf590da0223dacf75c7af019261116892849291019061185a565b506020820151600182015560408201516002820155606082015160039091018054608084015160a09094015160ff1990911660ff9384161761ff00191661010093909416929092029290921775ffffffffffffffffffffffffffffffffffffffff0000191662010000600160a060020a03909216919091021790556007546111f1903390611569565b33600160a060020a03167f24d2d558f98bdd9d21339e119fc0b03e213c7d05affd838ac2ee136d90e3bbeb6007548460405161122e929190612161565b60405180910390a2600780549060006112468361221c565b919050555050505050565b60068054600160a060020a0383811673ffffffffffffffffffffffffffffffffffffffff19831681179093556040519116919082907f8be0079c531659141344cd1fd0a4f28419497f9722a3daafe3b4186f6b6457e090600090a35050565b81600160a060020a031683600160a060020a031614156112e55760405160e560020a62461bcd02815260040161063990611f0c565b600160a060020a0383811660008181526005602090815260408083209487168084529490915290819020805460ff1916851515179055517f17307eab39ab6107e8899845ad3d59bd9653f200f220920489ca2b5937696c3190611349908590611cfa565b60405180910390a3505050565b611361848484610f3c565b61136d84848484611583565b610d255760405160e560020a62461bcd02815260040161063990611d61565b60408051602081019091526000815290565b6060816113df575060408051808201909152600181527f30000000000000000000000000000000000000000000000000000000000000006020820152610539565b8160005b811561140957806113f38161221c565b91506114029050600a83612187565b91506113e3565b60008167ffffffffffffffff8111156114355760e060020a634e487b7102600052604160045260246000fd5b6040519080825280601f01601f19166020018201604052801561145f576020820181803683370190505b5090505b8415610f345761147460018361219b565b9150611481600a86612257565b61148c90603061216f565b7f0100000000000000000000000000000000000000000000000000000000000000028183815181106114d15760e060020a634e487b7102600052603260045260246000fd5b60200101907effffffffffffffffffffffffffffffffffffffffffffffffffffffffffffff1916908160001a90535061150b600a86612187565b9450611463565b600090815260026020526040902054600160a060020a0316151590565b6000804233604051602001611545929190611bd4565b60408051601f1981840301815291905280516020909101209050610d8f8382612257565b6107ac8282604051806020016040528060008152506116d6565b600061159784600160a060020a031661170c565b156116cb5783600160a060020a031663150b7a026115b3610e5e565b8786866040518563ffffffff167c01000000000000000000000000000000000000000000000000000000000281526004016115f19493929190611c0e565b602060405180830381600087803b15801561160b57600080fd5b505af192505050801561163b575060408051601f3d908101601f1916820190925261163891810190611aff565b60015b611698573d808015611669576040519150601f19603f3d011682016040523d82523d6000602084013e61166e565b606091505b5080516116905760405160e560020a62461bcd02815260040161063990611d61565b805181602001fd5b600160e060020a0319167f150b7a0200000000000000000000000000000000000000000000000000000000149050610f34565b506001949350505050565b6116e0838361171b565b6116ed6000848484611583565b6106995760405160e560020a62461bcd02815260040161063990611d61565b600160a060020a03163b151590565b600160a060020a0382166117445760405160e560020a62461bcd02815260040161063990611ffd565b61174d81611512565b1561176d5760405160e560020a62461bcd02815260040161063990611e78565b61177960008383610699565b600160a060020a03821660009081526003602052604081208054600192906117a290849061216f565b9091555050600081815260026020526040808220805473ffffffffffffffffffffffffffffffffffffffff1916600160a060020a03861690811790915590518392907fddf252ad1be2c89b69c2b068fc378daa952ba7f163c4a11628f55a4df523b3ef908290a46107ac60008383610699565b6040518060c00160405280606081526020016000815260200160008152602001600060ff168152602001600060ff1681526020016000600160a060020a031681525090565b828054611866906121de565b90600052602060002090601f01602090048101928261188857600085556118ce565b82601f106118a157805160ff19168380011785556118ce565b828001600101855582156118ce579182015b828111156118ce5782518255916020019190600101906118b3565b506118da9291506118de565b5090565b5b808211156118da57600081556001016118df565b600067ffffffffffffffff8084111561190e5761190e61229d565b604051601f8501601f19908116603f011681019082821181831017156119365761193661229d565b8160405280935085815286868601111561194f57600080fd5b858560208301376000602087830101525050509392505050565b8035600160a060020a038116811461053957600080fd5b600060208284031215611991578081fd5b610d8f82611969565b600080604083850312156119ac578081fd5b6119b583611969565b91506119c360208401611969565b90509250929050565b6000806000606084860312156119e0578081fd5b6119e984611969565b92506119f760208501611969565b9150604084013590509250925092565b60008060008060808587031215611a1c578081fd5b611a2585611969565b9350611a3360208601611969565b925060408501359150606085013567ffffffffffffffff811115611a55578182fd5b8501601f81018713611a65578182fd5b611a74878235602084016118f3565b91505092959194509250565b60008060408385031215611a92578182fd5b611a9b83611969565b915060208301358015158114611aaf578182fd5b809150509250929050565b60008060408385031215611acc578182fd5b611ad583611969565b946020939093013593505050565b600060208284031215611af4578081fd5b8135610d8f816122b6565b600060208284031215611b10578081fd5b8151610d8f816122b6565b600060208284031215611b2c578081fd5b813567ffffffffffffffff811115611b42578182fd5b8201601f81018413611b52578182fd5b610f34848235602084016118f3565b600060208284031215611b72578081fd5b5035919050565b60008151808452611b918160208601602086016121b2565b601f01601f19169290920160200192915050565b60008351611bb78184602088016121b2565b835190830190611bcb8183602088016121b2565b01949350505050565b918252600160a060020a03166c0100000000000000000000000002602082015260340190565b600160a060020a0391909116815260200190565b6000600160a060020a03808716835280861660208401525083604083015260806060830152611c406080830184611b79565b9695505050505050565b60208082528251828201819052600091906040908185019080840286018301878501865b83811015611cec57603f19898403018552815160c08151818652611c9482870182611b79565b838b0151878c0152898401518a88015260608085015160ff908116918901919091526080808601519091169088015260a093840151600160a060020a0316939096019290925250509386019390860190600101611c6e565b509098975050505050505050565b901515815260200190565b600060208252610d8f6020830184611b79565b600060c08252611d2b60c0830189611b79565b602083019790975250604081019490945260ff928316606085015291166080830152600160a060020a031660a090910152919050565b60208082526032908201527f4552433732313a207472616e7366657220746f206e6f6e20455243373231526560408201527f63656976657220696d706c656d656e7465720000000000000000000000000000606082015260800190565b60208082526026908201527f4f776e61626c653a206e6577206f776e657220697320746865207a65726f206160408201527f6464726573730000000000000000000000000000000000000000000000000000606082015260800190565b60208082526025908201527f4552433732313a207472616e736665722066726f6d20696e636f72726563742060408201527f6f776e6572000000000000000000000000000000000000000000000000000000606082015260800190565b6020808252601c908201527f4552433732313a20746f6b656e20616c7265616479206d696e74656400000000604082015260600190565b60208082526024908201527f4552433732313a207472616e7366657220746f20746865207a65726f2061646460408201527f7265737300000000000000000000000000000000000000000000000000000000606082015260800190565b60208082526019908201527f4552433732313a20617070726f766520746f2063616c6c657200000000000000604082015260600190565b60208082526029908201527f4552433732313a2061646472657373207a65726f206973206e6f74206120766160408201527f6c6964206f776e65720000000000000000000000000000000000000000000000606082015260800190565b6020808252603e908201527f4552433732313a20617070726f76652063616c6c6572206973206e6f7420746f60408201527f6b656e206f776e6572206e6f7220617070726f76656420666f7220616c6c0000606082015260800190565b6020808252818101527f4552433732313a206d696e7420746f20746865207a65726f2061646472657373604082015260600190565b6020808252818101527f4f776e61626c653a2063616c6c6572206973206e6f7420746865206f776e6572604082015260600190565b60208082526018908201527f4552433732313a20696e76616c696420746f6b656e2049440000000000000000604082015260600190565b60208082526021908201527f4552433732313a20617070726f76616c20746f2063757272656e74206f776e6560408201527f7200000000000000000000000000000000000000000000000000000000000000606082015260800190565b6020808252602e908201527f4552433732313a2063616c6c6572206973206e6f7420746f6b656e206f776e6560408201527f72206e6f7220617070726f766564000000000000000000000000000000000000606082015260800190565b90815260200190565b918252602082015260400190565b600082198211156121825761218261226b565b500190565b60008261219657612196612284565b500490565b6000828210156121ad576121ad61226b565b500390565b60005b838110156121cd5781810151838201526020016121b5565b83811115610d255750506000910152565b6002810460018216806121f257607f821691505b602082108114156122165760e060020a634e487b7102600052602260045260246000fd5b50919050565b60006000198214156122305761223061226b565b5060010190565b600060ff821660ff81141561224e5761224e61226b565b60010192915050565b60008261226657612266612284565b500690565b60e060020a634e487b7102600052601160045260246000fd5b60e060020a634e487b7102600052601260045260246000fd5b60e060020a634e487b7102600052604160045260246000fd5b600160e060020a03198116811461090257600080fdfea2646970667358221220d2813cb2431782e34758f68798618709978674954e09726fee8022599e6c499a64736f6c63430008010033",
  "immutableReferences": {},
  "source": "// SPDX-License-Identifier: MIT\npragma solidity ^0.8.0;\n\n// Importacin de los Smart Contract: ERC721.sol y Ownable.sol\nimport \"@openzeppelin/contracts/token/ERC721/ERC721.sol\";\nimport \"@openzeppelin/contracts/access/Ownable.sol\";\n\n// Creacin del Smart Contract para el Videojuego NFT\ncontract LipToken is ERC721, Ownable {\n\n    // Constructor de mi Smart Contract\n    constructor (string memory _name, string memory _symbol)\n    ERC721(_name, _symbol) {}\n\n    // ============================================\n    // Declaraciones iniciales\n\n    // Contador de tokens NFT\n    uint256 COUNTER;\n    // Fijacin en el precio de los Tokens NFT\n    uint256 public fee = 100 gwei;\n    // Estructura de datos con las propiedades del lip (labio)\n    struct Lip {\n        string name;\n        uint256 id;\n        uint256 dna;\n        uint8 level;\n        uint8 rarity;\n        address owner;\n    }\n    // Estructura de almacenamiento\n    Lip [] public lips;\n    // Declaracin de un evento \n    event NewLip(address indexed owner, uint256 id, uint256 dna);\n\n    // ============================================\n    // Funciones de ayuda \n\n    // Asignacin de un nmero aleatorio\n    function _createRandomNum(uint256 _mod) internal view returns (uint256) {\n        uint256 randomNum = uint256(keccak256(abi.encodePacked(block.timestamp, msg.sender)));\n        return randomNum % _mod; \n    }\n\n    // Actualizacin del precio del Token NFT\n    function updateFee(uint256 _fee) external onlyOwner {\n        fee = _fee;\n    }\n\n    // Extraccin de los ethers del Smart Contract hacia el Owner \n    function withdraw() external payable onlyOwner {\n        address payable _owner = payable(owner());\n        _owner.transfer(address(this).balance);\n    }\n\n    // Creacin del Token NFT (lip/labio)\n    function _createLip(string memory _name) internal {\n        uint8 randRarity = uint8(_createRandomNum(100));\n        uint randDna = _createRandomNum(10**16);\n        Lip memory newLip = Lip(_name, COUNTER, randDna, 1, randRarity, msg.sender);\n        lips.push(newLip);\n        _safeMint(msg.sender, COUNTER);\n        emit NewLip(msg.sender, COUNTER, randDna);\n        COUNTER++;\n    }\n\n    // ============================================\n    // Creacin de un labio aleatorio\n    function createRandomLip(string memory _name) public payable {\n        require(msg.value >= fee);\n        _createLip(_name);\n    }\n\n    // Obtencin de todos los lips (labios)\n    function getLips() public view returns (Lip [] memory) {\n        return lips;\n    }\n\n    // Visualizar el balance del Smart Contract \n    function moneySmartContract() public view returns (uint256){\n        return address(this).balance;\n    }\n\n    // Visualizar la direccin del Smart Contract\n    function addressSmartContract() public view returns (address) {\n        return address(this);\n    }\n\n    // Obtencin de los tokens NFT usuario\n    function getOwnerLips(address _owner) public view returns (Lip [] memory) {\n        Lip [] memory result = new Lip [] (balanceOf(_owner));\n        uint256 counter = 0;\n        for (uint256 i = 0; i <lips.length; i++) {\n            if (ownerOf(i) == _owner) {\n                result[counter] = lips[i];\n                counter++;\n            }\n        }\n        return result;\n    }\n\n    // Subir de nivel los tokens NFT \n    function levelUp(uint256 _lipId) public {\n        require(ownerOf(_lipId) == msg.sender);\n        Lip storage lip = lips[_lipId];\n        lip.level++;\n    }\n\n\n}",
  "sourcePath": "/home/xdx/Escritorio/Solidity proyects/fore-erc-721/contracts/LipToken.sol",
  "compiler": {
    "name": "solc",
    "version": "0.8.1+commit.df193b15.Emscripten.clang"
  },
  "schemaVersion": "3.4.7",
  "updatedAt": "2022-09-27T09:29:03.007Z",
  "networkType": "ethereum",
  "devdoc": {
    "kind": "dev",
    "methods": {
      "approve(address,uint256)": {
        "details": "See {IERC721-approve}."
      },
      "balanceOf(address)": {
        "details": "See {IERC721-balanceOf}."
      },
      "getApproved(uint256)": {
        "details": "See {IERC721-getApproved}."
      },
      "isApprovedForAll(address,address)": {
        "details": "See {IERC721-isApprovedForAll}."
      },
      "name()": {
        "details": "See {IERC721Metadata-name}."
      },
      "owner()": {
        "details": "Returns the address of the current owner."
      },
      "ownerOf(uint256)": {
        "details": "See {IERC721-ownerOf}."
      },
      "renounceOwnership()": {
        "details": "Leaves the contract without owner. It will not be possible to call `onlyOwner` functions anymore. Can only be called by the current owner. NOTE: Renouncing ownership will leave the contract without an owner, thereby removing any functionality that is only available to the owner."
      },
      "safeTransferFrom(address,address,uint256)": {
        "details": "See {IERC721-safeTransferFrom}."
      },
      "safeTransferFrom(address,address,uint256,bytes)": {
        "details": "See {IERC721-safeTransferFrom}."
      },
      "setApprovalForAll(address,bool)": {
        "details": "See {IERC721-setApprovalForAll}."
      },
      "supportsInterface(bytes4)": {
        "details": "See {IERC165-supportsInterface}."
      },
      "symbol()": {
        "details": "See {IERC721Metadata-symbol}."
      },
      "tokenURI(uint256)": {
        "details": "See {IERC721Metadata-tokenURI}."
      },
      "transferFrom(address,address,uint256)": {
        "details": "See {IERC721-transferFrom}."
      },
      "transferOwnership(address)": {
        "details": "Transfers ownership of the contract to a new account (`newOwner`). Can only be called by the current owner."
      }
    },
    "version": 1
  },
  "userdoc": {
    "kind": "user",
    "methods": {},
    "version": 1
  }
}